:100000000C9435000C945D000C945D000C945D0024
:100010000C945D000C945D000C945D000C945D00EC
:100020000C945D000C945D000C945D000C945D00DC
:100030000C945D000C945D000C945D000C945D00CC
:100040000C94C4020C945D000C9434030C940E03C5
:100050000C945D000C945D000C945D000C945D00AC
:100060000C945D000C945D00820611241FBECFEF3E
:10007000D8E0DEBFCDBF22E0A2E8B1E001C01D9212
:10008000A834B207E1F711E0A0E0B1E0E4EEF2E15C
:1000900002C005900D92A238B107D9F710E0C5E370
:1000A000D0E004C02197FE010E945007C433D1075D
:1000B000C9F70E9466030C9470090C940000AF927B
:1000C000BF92CF92DF92EF92FF920F931F93CF9345
:1000D000DF936C017B018B01040F151FEB015E01A7
:1000E000AE18BF08C017D10759F06991D601ED913C
:1000F000FC910190F081E02DC6010995892B79F7DB
:10010000C501DF91CF911F910F91FF90EF90DF908C
:10011000CF90BF90AF900895FC01538D448D252F53
:1001200030E0842F90E0821B930B541710F0CF9691
:10013000089501970895FC01918D828D981761F0C3
:10014000A28DAE0FBF2FB11D5D968C91928D9F5FDA
:100150009F73928F90E008958FEF9FEF08952FB7D0
:10016000F8948091A3019091A401A091A501B09170
:10017000A6012FBF8093AF019093B001A093B1016E
:10018000B093B20187EA91E00E949B0097FF26C0DE
:100190002FB7F8948091A3019091A401A091A5019B
:1001A000B091A6012FBF4091AF015091B001609175
:1001B000B1017091B201841B950BA60BB70B409156
:1001C000AB015091AC016091AD017091AE0184170B
:1001D0009507A607B707B0F28FEF9FEF0895FC01D0
:1001E000918D828D981731F0828DE80FF11D858DEC
:1001F00090E008958FEF9FEF0895FC01918D228D7F
:10020000892F90E0805C9F4F821B91098F73992703
:10021000089587EA91E00E94FD0021E0892B09F40E
:1002200020E0822F089580E090E0892B29F00E9441
:10023000090181110C9400000895FC01A48DA80F00
:10024000B92FB11DA35ABF4F2C91848D90E0019618
:100250008F739927848FA689B7892C93A089B18938
:100260008C91837080648C93938D848D981306C0D9
:100270000288F389E02D80818F7D80830895EF923D
:10028000FF920F931F93CF93DF93EC0181E0888F50
:100290009B8D8C8D98131AC0E889F989808185FF20
:1002A00015C09FB7F894EE89FF896083E889F989C2
:1002B00080818370806480839FBF81E090E0DF91C4
:1002C000CF911F910F91FF90EF900895F62E0B8D17
:1002D00010E00F5F1F4F0F731127E02E8C8D8E11D2
:1002E0000CC00FB607FCFACFE889F989808185FF39
:1002F000F5CFCE010E941D01F1CFEB8DEC0FFD2F4C
:10030000F11DE35AFF4FF0829FB7F8940B8FEA89F3
:10031000FB8980818062CFCFCF93DF93EC01888D02
:100320008823B9F0AA89BB89E889F9898C9185FD70
:1003300003C0808186FD0DC00FB607FCF7CF8C91FE
:1003400085FFF2CF808185FFEDCFCE010E941D0198
:10035000E9CFDF91CF910895FC0101900020E9F7EA
:100360003197AF01481B590BBC0187EA91E00C940F
:100370005F00CF93DF93DC0114962D913C9115978C
:10038000232B79F0FB01CD91DC9160817181CE014D
:100390000E945609009729F08C1B9D0BDF91CF918D
:1003A00008958FEF9FEFFACFFB0144815581FC0147
:1003B000248135812417350778F080819181009759
:1003C00059F0FB01608171816115710529F00E946E
:1003D000480921E0892B09F020E0822F08950F932E
:1003E0001F93CF93DF93EC0188819981009759F097
:1003F0002A813B812617370730F081E0DF91CF91CA
:100400001F910F9108958B016F5F7F4F0E947B08B2
:10041000009759F0998388831B830A832C813D813F
:10042000232B59F7FC011082E8CF80E0E7CFCF9370
:10043000DF93EC0188819981009711F00E94F20707
:10044000198218821D821C821B821A82DF91CF9131
:100450000895EF92FF920F931F93CF93DF93EC01D8
:100460007B01198218821B821A821D821C82FB0169
:1004700001900020E9F731978F01061B170BB80197
:100480000E94EF01811109C0CE01DF91CF911F9130
:100490000F91FF90EF900C9417021D830C83B7010E
:1004A00088819981DF91CF911F910F91FF90EF90FB
:1004B0000C9441099F92AF92BF92CF92DF92EF923C
:1004C000FF920F931F93CF93DF937C016B015A012F
:1004D00089012417350720F48B2D5901042F182F7B
:1004E00061E871E0C7010E942902D6011496CD91FE
:1004F000DC91AC16BD0650F50C171D0708F4E80199
:10050000D601ED91FC911197EC0FFD1F90801082A8
:100510000D911C910A0D1B1D0115110571F0F801BB
:1005200001900020E9F731975F01A01AB10AB501E7
:10053000C7010E94EF01811116C0C7010E94170276
:10054000D6018D919C91C80FD91F9882C701DF9168
:10055000CF911F910F91FF90EF90DF90CF90BF90C0
:10056000AF909F900895F701B582A482B801808171
:1005700091810E944109E4CFFC0180819181009723
:1005800011F00C94F20708951F920F920FB60F927C
:1005900011242F933F938F939F93AF93BF93809199
:1005A000A3019091A401A091A501B091A601309161
:1005B000A20123E0230F2D3758F50196A11DB11D8F
:1005C0002093A2018093A3019093A401A093A5017D
:1005D000B093A60180919E0190919F01A091A001EE
:1005E000B091A1010196A11DB11D80939E01909330
:1005F0009F01A093A001B093A101BF91AF919F91E2
:100600008F913F912F910F900FBE0F901F901895D3
:1006100026E8230F0296A11DB11DD2CF1F920F9283
:100620000FB60F9211242F933F934F935F936F93C5
:100630007F938F939F93AF93BF93EF93FF9387EA3B
:1006400091E00E941D01FF91EF91BF91AF919F91A9
:100650008F917F916F915F914F913F912F910F906B
:100660000FBE0F901F9018951F920F920FB60F920A
:1006700011242F938F939F93EF93FF93E091B701F2
:10068000F091B8018081E091BD01F091BE0182FD41
:100690001BC090818091C0018F5F8F732091C10139
:1006A000821741F0E091C001F0E0E955FE4F958FCF
:1006B0008093C001FF91EF919F918F912F910F90A7
:1006C0000FBE0F901F9018958081F4CFCF93DF93CA
:1006D000CDB7DEB7EB970FB6F894DEBF0FBECDBF38
:1006E000789484B5826084BD84B5816084BD85B50D
:1006F000826085BD85B5816085BD80916E00816019
:1007000080936E00109281008091810082608093BE
:1007100081008091810081608093810080918000C0
:100720008160809380008091B10084608093B100EB
:100730008091B00081608093B00080917A008460E5
:1007400080937A0080917A00826080937A00809111
:100750007A00816080937A0080917A00806880932B
:100760007A001092C100E091B701F091B80182E0E7
:100770008083E091B301F091B4011082E091B50162
:10078000F091B60180E180831092BF01E091BB013E
:10079000F091BC0186E08083E091B901F091BA014B
:1007A000808180618083E091B901F091BA018081FC
:1007B00088608083E091B901F091BA0180818068FE
:1007C0008083E091B901F091BA0180818F7D8083AF
:1007D000E4E3F1E084E091E00CE111E040913001CC
:1007E00050913101609132017091330141935193E5
:1007F0006193719340910001509101016091020158
:1008000070910301DC014D935D936D937D93CD0158
:10081000409118015091190160911A0170911B01CA
:10082000D8014D935D936D937D938D01B1E0E834D4
:10083000FB07A1F63AE0432E512C612C712C87EA7C
:1008400091E00E94FD00892B09F40AC161E871E082
:10085000CE01C4960E9429020E94AF0097FD1EC0DF
:100860008A309105D9F089831A8208AD19AD0F5FDE
:100870001F4FB801CE01C4960E94EF01882361F397
:100880002CA93DA988AD99ADBE016F5F7F4F820F46
:10089000931F0E94410919AF08AFDECF60E671E0F7
:1008A000CE0101960E942902BE016F5F7F4FCE01EB
:1008B000C4960E94B9019C0150E040E0BE016C5C0E
:1008C0007F4FCE018E960E945A02CE0101960E9461
:1008D000BC0260E671E0CE0101960E942902BE01D1
:1008E0006F5F7F4FCE01C4960E94B90128AD39AD2C
:1008F000AC014F5F5F4FBE016C5C7F4FCE018896AD
:100900000E945A02CE0101960E94BC0262E671E08A
:10091000CE0101960E942902BE016F5F7F4FCE017A
:100920008E960E94D401182FCE0101960E94BC021F
:10093000111166C167E671E0CE0101960E9429029D
:10094000BE016F5F7F4FCE018E960E94D401182F9B
:10095000CE0101960E94BC02111155C16BE671E0F7
:10096000CE0101960E942902BE016F5F7F4FCE012A
:100970008E960E94D401182FCE0101960E94BC02CF
:10098000112309F461C000E011E063E771E0CE01DA
:1009900082960E942902BE016E5D7F4FCE018E9627
:1009A0000E94B9012AA93BA9AC014F5F5F4FBE016C
:1009B000625D7F4FCE0101960E945A0289819A8121
:1009C000C12CD12C7601009719F00E94AF066B0163
:1009D000CE0101960E94BC02CE0182960E94BC020A
:1009E000E6E0CE16D10408F04CC1CC0CDD1CCC0CDA
:1009F000DD1C18012C0C3D1CD101ED90FC90A8A42D
:100A0000B9A4A114B10439F00CA51DA56501011507
:100A1000110509F0FCC08CA59DA5892B61F088A566
:100A200099A5FC012081222331F0009709F425C10A
:100A30000E94AF067B01C701FF0CAA0BBB0BF101A3
:100A400080839183A283B383CE0188960E94BC02E7
:100A5000CE018E960E94BC02CE01C4960E94BC02BA
:100A600082E9C82E81E0D82E28E131E086E891E0C5
:100A70009BAF8AAF90E0E92E91E0F92E40E351E080
:100A8000F601312C832D806480937C0080917A0064
:100A9000806480937A0080917A0086FDFCCF8091FB
:100AA000780090917900DA018D909D90AD90BD9085
:100AB000AD01889DB001899D700D989D700D112428
:100AC000AAADBBAD8D919C91DB01A81BB90BCD01EB
:100AD000B7FF03C091958195910900811181800F25
:100AE000911FAAADBBAD6D937C93D7018D909D9066
:100AF000AD90BD907D01881999099183808397FFFE
:100B0000D9C011821082339432962C5F3F4F8AAD48
:100B10009BAD02969BAF8AAF96E03912B3CF2FB749
:100B2000F8948091A3019091A401A091A501B091A6
:100B3000A6012FBF409182015091830160918401F1
:100B400070918501841B950BA60BB70B853691051B
:100B5000A105B10508F4A1C085E791E00E94AC01B0
:100B6000D6018D909D906D01092C000CAA08BB0840
:100B7000B7FEB2C06DE287EA91E00E943F012227F2
:100B80003327A901281939094A095B0919A28E01DD
:100B90000F5D1F4FCA01B901A30192010E942E07E8
:100BA000605DF80162938F01211531054105510502
:100BB00089F70115110519F0C8010E94AC018DE7F4
:100BC00091E00E94AC01EEE9F1E0EC15FD0541F683
:100BD0008FE791E00E94AC012FB7F8948091A301B8
:100BE0009091A401A091A501B091A6012FBF80937F
:100BF000820190938301A0938401B09385014DC03D
:100C000000E311E0C2CE08E111E0BFCE640146016D
:100C1000BFEF8B1A9B0AF6018081082E000C990BFE
:100C20000E94EB06892B91F7015011090A0D1B1D3B
:100C3000D8018C91082E000C990B0E94EB06892B91
:100C400031F00C151D0518F001501109F1CFA80164
:100C50004F5F5F4F4C195D095DA74CA7AC14BD04F5
:100C600020F4B601C5010E943809E8A5F9A58CA5B4
:100C70009DA5E80FF91F1082CECE60E070E0CB0199
:100C8000D9CECE0188960E94BC02CE018E960E94DB
:100C9000BC02CE01C4960E94BC0280E090E0892B89
:100CA00009F4CDCD0E940901882309F4C8CD0E9422
:100CB0000000C5CDD9018D909D90AD90BC90092EBE
:100CC000000CAA0BBB0B88169906AA06BB060CF0F3
:100CD0001ACF9182808217CFA501940119A28E01AB
:100CE0000F5D1F4FCA01B901A30192010E942E0797
:100CF000605DD8016E938D012115310541055105C7
:100D000089F757CFE7EAF1E01382128288EE93E089
:100D1000A0E0B0E084839583A683B78382E591E069
:100D20009183808385EC90E09587848784EC90E0C4
:100D30009787868780EC90E0918B808B81EC90E0A8
:100D4000938B828B82EC90E0958B848B86EC90E089
:100D5000978B868B118E128E138E148E08951F938F
:100D6000FC0199278827BC01E89411911032E9F31E
:100D7000193010F01E30C8F31B3251F01D3249F407
:100D8000689406C00E94D606610F711D811D911DD9
:100D9000119110531A30B0F33EF4909580957095F0
:100DA00061957F4F8F4F9F4F1F910895592F482F67
:100DB000372F262F660F771F881F991F660F771F03
:100DC000881F991F620F731F841F951F660F771F5F
:100DD000881F991F089591110C94F406803219F020
:100DE00089508550C8F708959927882708952F922C
:100DF0003F924F925F926F927F928F929F92AF92AB
:100E0000BF92CF92DF92EF92FF920F931F93CF93F7
:100E1000DF93CDB7DEB7CA1BDB0B0FB6F894DEBF8E
:100E20000FBECDBF09942A88398848885F846E84B4
:100E30007D848C849B84AA84B984C884DF80EE80FE
:100E4000FD800C811B81AA81B981CE0FD11D0FB607
:100E5000F894DEBF0FBECDBFED010895A1E21A2EBA
:100E6000AA1BBB1BFD010DC0AA1FBB1FEE1FFF1F4E
:100E7000A217B307E407F50720F0A21BB30BE40B9E
:100E8000F50B661F771F881F991F1A9469F76095E5
:100E90007095809590959B01AC01BD01CF0108959F
:100EA000EE0FFF1F0590F491E02D09940F931F930F
:100EB000CF93DF938230910510F482E090E0E091CF
:100EC0004602F091470230E020E0B0E0A0E0309729
:100ED00099F42115310509F44AC0281B390B243037
:100EE0003105D8F58A819B816115710589F1FB0176
:100EF00093838283FE0111C040815181028113815D
:100F000048175907E0F04817590799F4109761F00E
:100F100012960C93129713961C933296CF01DF9181
:100F2000CF911F910F9108950093460210934702AD
:100F3000F4CF2115310551F04217530738F0A901BC
:100F4000DB019A01BD01DF01F801C1CFEF01F9CF4B
:100F50009093470280934602CDCFFE01E20FF31F2C
:100F6000819391932250310939832883D7CF2091DF
:100F7000440230914502232B41F420914A013091E3
:100F80004B01309345022093440220914801309157
:100F900049012115310541F42DB73EB740914C016F
:100FA00050914D01241B350BE0914402F091450214
:100FB000E217F307A0F42E1B3F0B2817390778F030
:100FC000AC014E5F5F4F2417350748F04E0F5F1F8F
:100FD0005093450240934402819391939FCFF0E058
:100FE000E0E09CCFCF93DF930097E9F0FC013297CC
:100FF00013821282A0914602B0914702ED0130E0C7
:1010000020E01097A1F420813181820F931F20915D
:101010004402309145022817390709F061C0F09366
:101020004502E0934402DF91CF910895EA01CE1783
:10103000DF07E8F54A815B819E0141155105B1F753
:10104000E901FB83EA8349915991C40FD51FEC173D
:10105000FD0761F4808191810296840F951FE9015B
:1010600099838883828193819B838A83F0E0E0E087
:1010700012968D919C9113970097B9F52D913C9103
:101080001197CD010296820F931F20914402309157
:1010900045022817390739F6309751F51092470263
:1010A00010924602B0934502A0934402BCCFD38372
:1010B000C28340815181840F951FC817D90761F4FD
:1010C0004E5F5F4F88819981480F591F518340833C
:1010D0008A819B81938382832115310509F0B0CFEA
:1010E000F0934702E09346029ECFFD01DC01C0CFA2
:1010F00013821282D7CFB0E0A0E0E1E8F8E00C94D0
:10110000F9068C01009751F4CB010E9456078C011F
:10111000C801CDB7DEB7E0E10C941507FC01E60F7E
:10112000F71F9C0122503109E217F30708F49DC014
:10113000D901CD91DC911197C617D70798F0C5302A
:10114000D10530F3CE0104978617970708F3C61B25
:10115000D70B2297C193D1936D937C93CF010E94BB
:10116000F207D6CF5B01AC1ABD0A4C018C0E9D1E56
:10117000A0914602B0914702512C412CF12CE12C58
:10118000109731F580914402909145028815990598
:1011900009F05CC04616570608F058C08091480117
:1011A00090914901009741F48DB79EB740914C0151
:1011B00050914D01841B950BE817F90708F055C0B5
:1011C000F0934502E0934402F90171836083A0CF5C
:1011D0008D919C91119712966C90129713967C901A
:1011E0001397A815B90559F56C0142E0C40ED11C3E
:1011F000CA14DB0420F1AC014A195B09DA0112962A
:10120000159780F06282738251834083D9016D9378
:101210007C93E114F10471F0D7011396FC93EE93E3
:10122000129776CF22968C0F9D1FF90191838083B0
:10123000F301EFCFF0934702E093460269CF4816DF
:10124000590608F42C017D01D3019ACFCB010E94ED
:1012500056077C01009749F0AE01B8010E94380999
:10126000C8010E94F207870153CF10E000E050CF81
:10127000FB01DC0102C001900D9241505040D8F7B3
:101280000895FB01DC0101900D920020E1F7089523
:10129000FB01DC014150504030F08D9101908019EC
:1012A00019F40020B9F7881B990B0895FB0151919F
:1012B0005523A9F0BF01DC014D9145174111E1F71C
:1012C00059F4CD010190002049F04D914015411194
:1012D000C9F3FB014111EFCF81E090E00197089540
:0412E000F894FFCFB0
:1012E40004000000000000000000000000000000F6
:1012F40000000000000000001027000000000000B3
:1013040000000000000000000000000000000000D9
:101314000A000000000000000000000000000000BF
:1013240000000000000000000000480280000000EF
:1013340000003F015F008C008C01FD009B00EF006A
:101344003D006761696E006D61780064616D70696C
:101354006E6700200064656C7461733A002C000DA4
:021364000A007D
:00000001FF
